:10000000ECC200000C949C2505C3000003C3000053
:1000100001C30000FFC20000FDC20000FBC20000DF
:10002000F9C20000F7C200000C94862A0C94532BEE
:100030000C944B24EFC20000EDC20000EBC20000A4
:10004000E9C20000E7C20000E5C20000E3C2000010
:10005000E1C200000C94C224DDC20000DBC200003B
:10006000D9C20000D7C20000D5C20000D3C2000030
:10007000D1C20000CFC20000CDC20000CBC2000040
:10008000C9C20000C7C20000C5C20000C3C2000050
:10009000C1C20000BFC20000BDC20000BBC2000060
:1000A000B9C20000B7C20000B5C2000000000000E5
:1000B00000000000000000000000000014001A0012
:1000C00008001500170000000000040016000700DB
:1000D00009000A00000000001D001B0006001900B6
:1000E00005000000000000000000000022522C006B
:1000F000E10000000000000000000000000000001F
:100100000000130012000C0018001C00000000008A
:1001100033000F000E000D000B000000000038003F
:100120003700360010001100000000000000000041
:1001300000002152E200E00000000000000000008A
:1001400000000000000000001E001F002000210031
:100150002200000000002E002D002D0234002B0094
:100160000000000035000000000000002900000031
:1001700000000000000000002A002800010000002C
:100180000000000000000000000000000000270048
:1001900026002500240023000000000030002F006E
:1001A00000003102310000000000E3000000000008
:1001B0001A00140000000000000000000000010010
:1001C000010001000100000000000000000000002C
:1001D000000000003A003B003C003D003E000000F3
:1001E0000000D9002878277820780000000000005F
:1001F000DA00CF00CE00CD00D000000000000000EB
:1002000000000000AA00A90001000000000000009A
:100210000000000000000000000043004200410018
:1002200040003F000000000044004600AB00AE006C
:10023000AC000000000045004F005200510050008B
:10024000000000000000000000000000D200D1000B
:100250001E0F0500047F3F1F643214643214783C83
:100260001E1E140A052223252628292A2C2D2F306C
:1002700032333536383A3B3D3E4042434547494AA2
:100280004C4E5051535557595A5C5E6062646668D3
:10029000696B6D6F71737577797B7D7F81838587DE
:1002A000898A8C8E90929496989A9C9E9FA1A3A5E1
:1002B000A7A8AAACAEAFB1B3B4B6B8B9BBBCBEBF09
:1002C000C1C2C3C5C6C7C9CACBCCCDCED0D1D2D28C
:1002D000D3D4D5D6D7D7D8D9D9DADADBDBDBDCDC97
:1002E000DCDCDCDDDDDDDDDCDCDCDCDCDBDBDBDA4F
:1002F000DAD9D9D8D7D7D6D5D4D3D2D2D1D0CECDBA
:10030000CCCBCAC9C7C6C5C3C2C1BFBEBCBBB9B8C6
:10031000B6B4B3B1AFAEACAAA8A7A5A3A19F9E9C4B
:100320009A98969492908E8C8A89878583817F7D16
:100330007B79777573716F6D6B6968666462605EF7
:100340005C5A5957555351504E4C4A4947454342C0
:10035000403E3D3B3A3836353332302F2D2C2A295A
:100360002826252322FFAA7F554000010101010113
:10037000010101010202020202020202020303035E
:10038000030303030304040404040404050505052E
:1003900005060606060607070707070808080809EE
:1003A0000909090A0A0A0B0B0B0C0C0C0D0D0D0E9A
:1003B0000E0E0F0F0F10101111111212131314142F
:1003C000151516161717181819191A1A1B1B1C1DA4
:1003D0001D1E1E1F202021222223242425262627FD
:1003E0002829292A2B2C2D2D2E2F3031323233342F
:1003F00035363738393A3B3C3D3E3F404142434435
:1004000045464748494A4C4D4E4F50515354555616
:1004100058595A5B5D5E5F616264656668696B6CC2
:100420006D6F7072737577787A7B7D7E808283853D
:1004300087888A8C8E8F91939596989A9C9EA0A27D
:10044000A3A5A7A9ABADAFB1B3B5B7BABCBEC0C287
:10045000C4C6C9CBCDCFD1D4D6D8DBDDDFE2E4E74B
:10046000E9EBEEF0F3F5F8FAFDFF0C03520065003E
:1004700064006F00780000001403460061006C0007
:1004800062006100740065006300680000000403FE
:10049000090409023B00020100A0FA09040000015E
:1004A0000301010009211101000122440007058117
:1004B00003080001090401000103000000092111E3
:1004C00001000122B600070582032000011201008D
:1004D0000200000008444D445200010102000105E1
:1004E000010902A10185020901A1000509190129DB
:1004F00008150025019508750181020501093009DB
:10050000311581257F9502750881060938158125E9
:100510007F950175088106050C0A38021581257F33
:10052000950175088106C0C005010980A1018503F8
:1005300019012AB700150126B70095017510810031
:10054000C0050C0901A101850419012AA0021501A9
:1005500026A002950175108100C005010906A101C0
:100560008506050719E029E715002501950875019D
:1005700081020507190029EF1500250195F0750185
:10058000810205081901290595057501910295015A
:1005900075039101C005010906A101050719E029AC
:1005A000E7150025019508750181029501750881FF
:1005B000010507190029FF150026FF00950675089B
:1005C000810005081901290515002501950575010A
:1005D0009102950175039101C00011241FBECFEF58
:1005E000DAE0DEBFCDBF12E0A0E0B1E0EAEBFEE56D
:1005F00002C005900D92A630B107D9F723E0A6E01E
:10060000B2E001C01D92AD3EB207E1F70E94FD14B9
:100610000C94D22EF5CC8330B8F46A30A8F447306D
:1006200098F450E097E0699F400D511D1124FA01A4
:1006300096E4899FE00DF11D1124EE0FFF1FE45594
:10064000FF4F85919491089581E090E00895E3CF64
:10065000089581E00895FDCF0895FBCF089581E0CE
:100660000895F7CF0895F5CF0895FDCF0895089523
:100670000895FDCF089508950895A6E0B0E0E3E45D
:10068000F3E00C94A02D49835A839E8330910D0290
:1006900089819A81311117C03E81332389F0222349
:1006A00079F09AD5182F682F89819A8174D569813C
:1006B0007A81812F0E941F0F2696E3E00C94BC2DB7
:1006C0007BD5182FF4CF88D569817A81F3CFFC01CF
:1006D000262F408151816281738184819581CDCFA4
:1006E000CF93DF93EC0161E0F2DFBE01B4DF88233A
:1006F00049F061E0CE01EBDFBE01AFDF8170DF9139
:10070000CF91089580E0FACF0F931F93CF93DF939B
:10071000EC0160E0DCDF8C01BE01AADFBE01C80194
:10072000A8DFDF91CF911F910F91089521E030E074
:10073000A90102C0440F551F8A95E2F7CA0164C49B
:10074000CF93C82F81E090E00C2E02C0880F991F34
:100750000A94E2F70E94240D8C2FE8DFCF910895D0
:1007600081E00895FDCF0895FBCF0895CF93C82F62
:1007700003D48C2FF7DF8C2FF7DF2FEF84E39CE07F
:10078000215080409040E1F700C00000CF910895D3
:1007900081E0ECDF0C94E62480E0E8DF0C94F724A1
:1007A0000F931F93CF93DF938C0161E090DFEC01F7
:1007B000F801858181110E94401CB801CE0151DFF2
:1007C000811106C080E0DF91CF911F910F910895B4
:1007D000B801CE014ADF8823A9F3B801CE010E94F7
:1007E000AE21882379F3B801CE010E94081E882328
:1007F00049F3B801CE010E94E01D882319F3B80126
:10080000CE010E9413158823E9F2B801CE010E949F
:1008100065108823B9F2F8018581882361F0C3301F
:10082000FCE7DF07D9F050F4C115ECE7DE07A1F0D3
:10083000C130DC47A9F0C80112DFC5CFCB358CE74A
:10084000D80799F0CC35ECE7DE0761F0CA35DC4714
:1008500091F70E94EB0CEFCF9BDFB4CF0E941C0DF1
:100860009BDFB0CF0E94E30CE6CF0E94ED0CE3CFFC
:1008700002DF0E94132417C018D0FEDE0C94172448
:1008800081E008950895CF93DF93D82FF9DFC82F23
:10089000882311F08D2FF6DF8C2FDF91CF910895F3
:1008A0000895F1CF089580E0FCCF0E94FD21F9CF9B
:1008B000CF930E94FD21C82F809108028C1771F000
:1008C000C09308020E94B6246093090270930A0242
:1008D00080930B0290930C028C2FE3DFCF9108954D
:1008E000ADE0B0E0E6E7F4E00C94A12D488759872D
:1008F0006A877B878C879D87911190D71F8286E0BE
:10090000FE013896DE01119601900D928A95E1F76D
:100910008D8181110CC029813A814B815C816D816F
:100920007E818F81CBD62D96E2E00C94BD2DCE0139
:100930000196D6DE8111EFCFF6CFFC012481213064
:1009400019F48081918179C40895662321F00E9471
:10095000651F0C9430200E94B71FFBCFCF93C82F88
:100960008823B9F08238B9F40E94132281FD11C0A6
:1009700089E30E944023DDD72FEF87EE93E02150DB
:1009800080409040E1F700C0000089E30E945723B7
:10099000D0D7CF910895833899F40E94132280FD17
:1009A000F8CF83E50E944023C4D72FEF81EE94E077
:1009B000215080409040E1F700C0000083E5E6CF81
:1009C000843899F40E94132282FDE3CF87E40E94C9
:1009D0004023AFD72FEF81EE94E02150804090402C
:1009E000E1F700C0000087E4D1CF8CEF8C0F813A93
:1009F00090F48C2F0E94101D8111CBCF8C2F0E9460
:100A0000B522882321F08C2F0E94572392D78C2F58
:100A10000E944023BDCF80E28C0F883040F4C77025
:100A200081E001C0880FCA95EAF7DBD6B1CFEBE5CC
:100A3000EC0FE33040F4F0E0E857FE4F808190E0A7
:100A40000E944622A6CFE8E5EC0FEB3150F4F0E02F
:100A5000EE0FFF1FEE5AFE4F808191810E946D22A2
:100A600098CF83E38C0F833108F093CF61E08C2F14
:100A70006CDF8FCF882309F44DC0823861F40E9467
:100A8000132281FF47C089E30E94402352D789E3A4
:100A90000E9457234EC7833851F40E94132280FFCF
:100AA00039C083E50E94402344D783E5F1CF8438E1
:100AB00051F40E94132282FF2DC087E40E9440233C
:100AC00038D787E4E5CF9CEF980F913A08F390E28E
:100AD000980F983048F4877091E001C0990F8A957B
:100AE000EAF7892F84D6D6CF9BE5980F933020F470
:100AF00090E080E00C94462298E5980F9B3120F41A
:100B000090E080E00C946D2293E3980F933110F401
:100B100060E01BCF08951F93CF93DF93182FEB0155
:100B20001DDF209731F4812FA5DFDF91CF911F9139
:100B300008958FE99FE00197F1F700C00000219729
:100B4000F0CF70E060E0893311F460E570E0E3CF4E
:100B5000882311F046D6EDC60895882311F047D6B4
:100B6000E8C60895B0E0A0E0E8EBF5E00C949A2D1B
:100B70006C01D62FC72FFC011581068102950F70DD
:100B800026D6E82E8823E9F0E12E1123D1F08C2F10
:100B9000807F803461F080E28D0F8830F8F08C2FF8
:100BA000807E803221F4D230C8F00023B9F08091E9
:100BB0008F0382FF13C082E0E0D609D691E0E82ED1
:100BC000E926BC2EB2949FE0B922FBE0FB1580F130
:100BD000EB2DF0E0EC52F14D0C94602DE12CF1CFB7
:100BE0000C2F0F70C07F11F00295007F112381F050
:100BF000002349F080E28D0F883010F0D11105C03C
:100C0000802FEFD596D68D2F40C0802FFAD5FACF02
:100C10008D2F30DF002361F080E28D0F883010F0DF
:100C2000D11103C0802FE3D502C0802FF0D581D62B
:100C3000EB2DE850FF0B349708F04CC10E94FD21CA
:100C400030DECDB7DEB7E9E00C94B62D2C2F2F7037
:100C5000F22EC07FC03219F0F29480EFF822DD232B
:100C600041F0D13081F1112309F439C00023C9F0DA
:100C7000CACF80918F0382FD10C0112341F0FF2065
:100C800019F08F2DAED555D680E068DED1CF80E04B
:100C9000F1DEFF2069F28F2DC6CF112359F001112B
:100CA00003C08F2D55DFC4CF013009F0C1CF8F2D88
:100CB000C9D5BECF0111BCCF8F2D4FDF8F2DCDD524
:100CC0008F2DB2D5B5CF112321F0063008F0B0CF6B
:100CD000E8CF053008F0ACCF8F2D3FDFA9CF002340
:100CE000D9F3D93349F43FEF87EE93E03150804098
:100CF0009040E1F700C000008D2FBCDE99CF8C2F13
:100D000086958695837069F0813009F091CF8D2F9B
:100D10009C2F9370111102C080E090E00E946D2220
:100D200087CF8D2F9C2F9370111102C080E090E02F
:100D30000E9446227DCF612F8D2F07DE79CF8C2F29
:100D4000837081F5111174CF4D2F429546954770F0
:100D5000440F440F2D2F2F7030E0042E02C0220FBD
:100D6000331F0A94E2F790E080E0D4FF09C08FE0DF
:100D700090E002C0880F991F4A95E2F78095909500
:100D8000C695C695C370822B932BC23039F040F4C0
:100D9000C13011F042D14CCF39D14ACF45D148CFE3
:100DA00033D146CF8695112311F08C2F8170882383
:100DB00009F43ECF4D2F429546954770440F440F9E
:100DC0002D2F2F7030E0042E02C0220F331F0A9403
:100DD000E2F790E080E0D4FF09C08FE090E002C02D
:100DE000880F991F4A95E2F780959095C695C6950C
:100DF000C370822B932BC23039F040F4C13011F014
:100E000067D116CF5ED114CF6AD112CF1AD110CFCD
:100E1000CF70112321F08C2F28D18D2F43CF8D2F10
:100E20009CDE8C2F30D104CFD23F39F160F4D03F1B
:100E3000B9F0D13F81F0112309F43CC00111E3CE98
:100E40008C2F8F711EC0D33FF1F0D43FA1F780915A
:100E50008F0382FD20C08C2F8F71112319F311C0D5
:100E6000112339F0053008F0E3CE8C2F8F711BD1A0
:100E7000DFCE063008F0DCCEF8CF8C2F8F71111149
:100E8000D1CFF3D0D5CE112321F08C2F8F71E3D0A9
:100E9000CFCEDED0CDCE112329F063E08C2F8F7121
:100EA00055D5C6CE81E069D5023008F4C1CE82E0C6
:100EB00064D5BECE002359F0D93309F01DCFEFEF32
:100EC000F7EE23E0E150F0402040E1F713CF8C2F04
:100ED0008F71A8CFEE2009F4B4CE75D480FDB1CEC9
:100EE000F60115826AD4C1D0C60117D066D4CBD022
:100EF000A8CE0F931F93CF93DF93EC016881798184
:100F00008D81A4D18C01F2D07ED0B801CE012ADE31
:100F1000DF91CF911F910F910895CF93DF93EC0153
:100F20008C81882381F0CE013BDC81110FC04FD42E
:100F3000882349F08D81882331F080918F0382FFCF
:100F400002C082E01AD5DF91CF910895CE01D1DFA2
:100F5000CE01DADBF8CF90E080E00E94462290E0FC
:100F600080E00E946D225AD4E4D40E9449200C945F
:100F700030200E946E23EFCF41D4FBCF92959F701B
:100F8000963091F058F4925F9F70923058F4803F01
:100F900019F030F4883E30F481E008959A5FF4CF80
:100FA000843FD1F380E00895883EB0F3813FD1F7CC
:100FB000F3CFFC012481222321F0808191813DD156
:100FC000DDCF80E00895A6E0B0E0E9EEF7E00C9414
:100FD000A12D2696E2E00C94BD2DA7E0B0E0E3EF52
:100FE000F7E00C94A12D2796E2E00C94BD2D089516
:100FF000FECF0895FDCF0895FADFFCDF9093350210
:101000008093340208950895F7CF08952091340213
:1010100030913502822B932BEFCF20913402309107
:10102000350282239323E8CF209134023091350298
:1010300082279327E1CFDBCF0895FDCF0895D7CF47
:101040000895FDDFFADF9093330280933202089512
:1010500090E080E0F6CF21E030E0A90102C0440F2B
:10106000551F8A95E2F7CA01ECCF21E030E002C0BB
:10107000220F331F8A95E2F780913202909133025A
:10108000822B932BDECF21E030E002C0220F331FF2
:101090008A95E2F720953095809132029091330243
:1010A00082239323CECF21E030E002C0220F331FF2
:1010B0008A95E2F78091320290913302822793273A
:1010C000C0CF2091320230913302822B932BB9CFC3
:1010D000209132023091330282239323B2CF2091A8
:1010E00032023091330282279327ABCF0895262F07
:1010F000277091E001C0990F2A95EAF723E07695D1
:1011000067952A95E1F7660F771F660F771FFA013B
:10111000E60FF71F50E040E0682F70E08191DF019B
:1011200011979B01042E02C0369527950A94E2F789
:10113000217021952827292328272C934F5F5F4F63
:101140004430510559F70895A82FA77023E09695CC
:1011500087952A95E1F7880F991F880F991FFB0142
:10116000E80FF91F50E040E080E0219130E00A2EC6
:1011700002C0369527950A94E2F721703327042E92
:1011800001C0220F0A94EAF7822B4F5F5F4F443071
:10119000510559F70895262F9A3068F4873058F48E
:1011A000682F70E087E0989F600D711D11244EE05C
:1011B00052E0822F9CCF0895292F9A3058F487301F
:1011C00048F490E06EE072E037E0239F800D911DBF
:1011D0001124BACF80E00895B0E0A0E0E2EFF8E09B
:1011E0000C949A2D7C01009132021091330280916F
:1011F000340290913502082B192BCFE0D0E0CC249B
:10120000C394D12CBC2EC6010C2E02C0880F991F8E
:101210000A94E2F780239123892B49F4219790F7D0
:10122000B12C8B2DCDB7DEB7E9E00C94B62DB7010C
:101230008C2F10D6019791F3F4CFCF93DF93EC016D
:10124000CBDFBE0107D6DF91CF9108951F93CF93D7
:10125000DF93EB0190910D02992331F0CB01EDDF8B
:10126000DF91CF911F910895882351F0CB01B4DF16
:10127000182F682FCE018FDFBE01812FEBD5F0CF65
:10128000CB019ADF182FF8CF1F93CF93DF93C09134
:10129000360217E0809137028C1304C0DF91CF91A2
:1012A0001F910895D0E01C9FF0011D9FF00D1124A7
:1012B000E85CFD4F208131814281538164817581D9
:1012C00086818BDE2196C770E5CF20917002309128
:1012D0007102409172025091730260917402709198
:1012E00075028091760279CECF93DF93809176025A
:1012F000807F09F04BC080917502882309F446C0B5
:10130000E091360250913702C0917102D091700283
:10131000609172027091730247E05E17B9F18E2FEF
:1013200090E0E49FF0011124E85CFD4F248122232A
:1013300081F1489FF001499FF00D1124DF01A85C65
:10134000BD4F11962C9111972C1323C02C912D1366
:1013500020C015962C91159721111BC012962D9126
:101360003C91261B370B283C310598F4809176027E
:101370008F70806180937602E25CFD4F80818F7078
:101380008061808380E792E0C8DD7EDFDF91CF91CE
:101390000895FC013196E770C0CF482F20913602A6
:1013A0009091370257E0291302C080E0089530E0A1
:1013B000529FF001539FF00D1124E85CFD4F818195
:1013C000681306C08081481303C085818111EECF68
:1013D0002F5F3F4F2770E7CFA4E1B0E0E2EFF9E0E5
:1013E0000C94972D8C0186E0F801DE011F96019088
:1013F0000D928A95E1F7F8018481E58090E7A92EA6
:1014000092E0B92E9091740291111AC08823A9F02C
:10141000EE2089F0C801CDDDF82E882361F087E049
:10142000F801D50101900D928A95E1F7C50185DAA1
:101430005BDF4BDF59C0C80170DDFF24F39454C05B
:10144000C080D18082809380F090750220917202DA
:1014500030917302A401421B530BFF2009F4E9C031
:10146000483C510508F09CC0882309F43DC0909188
:10147000710280917602282F207F09F056C09D11BD
:1014800014C090917002C91210C0E11048C08F7052
:1014900080618093760219DF80E792E03EDD8091E3
:1014A0007602F8018683F12C1FC0E11038C06D2D43
:1014B0008C2D73DF6D2D8C2D70DFE82E8111F3CF15
:1014C000CF86D88A8F859889B8DE292F22952F70EC
:1014D000243078F49F702230A0F09923B1F0F80105
:1014E0009681907F91F4FE2C8F2D6496ECE00C9405
:1014F000B32D2A5F2F70223060F0C8010EDDEF2C73
:10150000F2CF992311F0882371F3805E883058F36D
:10151000F4CF803F40F3815F833078F7E4CF809150
:101520007602816080937602BECF9D1112C09091A9
:101530007002C9120EC0E1100CC08683C801EDDC38
:1015400087E0F801A0E7B2E001900D928A95E1F7FB
:1015500070CFC8012EDD882309F46DCFEE2009F489
:101560006ACF80917602803280F0209170023091B3
:101570007102398728879B868A86909174029C879E
:101580001D868E87CE010896C8DC87E0F801A0E7AB
:10159000B2E001900D928A95E1F7A6DE96DE4DCF7E
:1015A00090917602292F207F89F4682D9A8A898A62
:1015B000A6017A899E2D07DD80E792E0AEDC87E008
:1015C000F50111928A95E9F780DE6DCF882309F441
:1015D0008BCF809171028D110FC080917002C81263
:1015E0000BC0E11009C09683C80197DC87E0F501C4
:1015F00011928A95E9F778CFC801DBDC882309F4DA
:101600001ACFEE2009F417CF80917602803208F4C9
:10161000BCCF20917002309171023A8329839C8261
:101620008B82909174029D831E828F83CE010196DE
:10163000ABCF483C5105A8F5882309F4FECEFE2C1B
:10164000EE2009F4F8CE809171028D111EC08091B8
:101650007002C8121AC08091760280FD0DC0982FCA
:10166000907F51F08683903F09F468CF982F907F48
:10167000905F8F70892B61CF87E0F801A0E7B2E01F
:1016800001900D928A95E1F72FCFC80192DC81116C
:101690007CCF80917602816080937602C8013DDC28
:1016A00023CF682D9A8A898AA6017A899E2D8BDCA0
:1016B00087E0F50111928A95E9F7BBCEAEE0B0E084
:1016C000E4E6FBE00C94A02D288739874A875B87E6
:1016D0006C877D878E87CE0108967EDE8823A9F0F1
:1016E0006C85662339F0288539854A855B857D853B
:1016F0008E8573DC17E08091360290913702891352
:101700003BC02E96E3E00C94BC2D87E0FE0138969A
:10171000DE01119601900D928A95E1F78C85882360
:1017200049F32091370230E0C9010196877099276B
:10173000409136024817190691F097E0929FD00128
:10174000939FB00D1124A85CBD4FFE01319601900E
:101750000D929A95E1F78093370296DDCBCF0CDCA2
:10176000109237021092360287E0E0E7F2E0DF01E4
:101770001D928A95E9F7BECF819FC0011124885C34
:101780009D4F2ADE882309F4BCCFE09136021E9FCC
:10179000F0011124E85CFD4F2081318142815381A9
:1017A00064817581868119DC8091360290E0019612
:1017B00087709927809336029ECF80919F028695ED
:1017C00086958695089580919F02877008959091DF
:1017D0009F02977081E009F480E008958091CB0228
:1017E00008959091CB02892B8093CB020895809528
:1017F0009091CB0298239093CB0208951092CB0244
:1018000008959091CA02892B8093CA020895809509
:101810009091CA0298239093CA0208951092CA0226
:1018200008950895FECF08959091A002292F2823AE
:1018300029F0809589238093A002F4CF089508951C
:10184000FECF08959091A102292F2823281721F077
:10185000982B9093A102F4CF08959091A102292F83
:10186000282329F0809589238093A102E9CF089548
:101870008091A102882321F01092A10280E0E0CFA4
:101880000895CF93C091CB028091CA02C82B80915A
:10189000A102882329F0C82B0E9494228111E8DF3D
:1018A0008C2FCF910895CF93DF93C0910601D091F3
:1018B0000701E7DF8883C0910601D091070148E066
:1018C00050E067E972E0CE010E94602E892B59F04A
:1018D00088E0FE01A7E9B2E001900D928A95E1F758
:1018E000CE010E941522DF91CF910895CF93DF930F
:1018F000C0910401D0910501C4DF8983C091040126
:10190000D091050140E250E067E772E0CE010E940D
:10191000602E892B59F080E2FE01A7E7B2E001902A
:101920000D928A95E1F7CE010E942222DF91CF919C
:1019300008950E94F621882329F080918E0387FF65
:1019400001C0D4CFB0CF0895FECF089590918F03FA
:1019500092FF0EC098E0899F90011124622B609342
:101960009F0283DB80919F02869586958695ECCFBA
:101970007CCB10929F0280E0E7CF90919F028095F0
:10198000892380939F02282F277059F4891749F0E3
:1019900090918F0392FF05C086958695869573DB9F
:1019A000E8CF089590918F0392FB222720F9281702
:1019B00049F080FB92F990938F038EE893E048D032
:1019C00082E0DBCF089580918F0382FB882780F926
:1019D00091E08927E7CF81E0E5CF80E0E3CF60E0C9
:1019E00070E0CB0132C460E070E0CB0128D4F7CFC7
:1019F000A3E0B0E0EEEFFCE00C94A12D78D383D30C
:101A00001B82CE01039696D381E090E0909335023D
:101A1000809334029BD31A8219828A8184618A83DB
:101A2000CE010196A4D30E941D16DDDF2396E2E0CD
:101A30000C94BD2DDDCF08956CC3089559C308954E
:101A40006EC308957DC3089581C3089584C3089526
:101A50008EC3089593C30895D2C30895FCC3089517
:101A6000A6E0B0E0E6E3FDE00C949F2D0E94AA24DE
:101A70008C018091CC029091CD028017910781F06A
:101A800019821A820E94AA24682F49815A81792FCB
:101A900080E090E00E9470041093CD020093CC028D
:101AA0002696E4E00C94BB2DEDD26093DC0270939B
:101AB000DD028093DE029093DF026093D802709380
:101AC000D9028093DA029093DB0208950895089575
:101AD000FDCF08950895FEDFFBCF0895FECF089552
:101AE0000895FEDFFBCF81E0089583E690E196D76D
:101AF000EEDFF1CF55C50895089508950895FCDFF0
:101B0000FCDFFCCF9BDF811101C094DF80EE92E00F
:101B100097DF8EE893E09ADF0E949D1C93DF74DAD2
:101B2000809132029091330288CA0E94A12485D20A
:101B30003CD594D4E7DF0E9450040E94C81D0E9447
:101B4000191B40D5CECFA6E0B0E0E9EAFDE00C9449
:101B5000982DC9DF81110CC083DF22D50E94411C62
:101B60000E946B200E9458042696EBE00C94B42D42
:101B700094D48EECA82E82E0B82E750110E0F70107
:101B800001917F01812F72D31F5F1A3009F43DC08C
:101B90000817A9F38091E00281FD6ED3ABDFC82E58
:101BA00010E099249394812F61D3082FF50181913E
:101BB0005F01081729F1F12CEE24E394D02ED826EA
:101BC0008D2D8E21A9F0CC2099F0F9821A830E94E4
:101BD000AA249C838B839D8291E0802F8E2109F41F
:101BE00090E049815A816B817C818D810E947004D3
:101BF000F394EE0CF7E0FF12E3CFF5013197008389
:101C00001F5F1A3081F650DFA8CF0813C3CFA4CFCF
:101C10001F93CF93DF9320D1EC01C11580E5D80746
:101C2000F0F5C11580E4D80708F09AC0C03ED10590
:101C300020F5CD3CD10508F082C0C83AD10578F432
:101C4000C53AD10508F073C0C130D10519F120970C
:101C500009F1C430D105F0F4D0E0C0E01BC0C33CB2
:101C6000D105D0F7C85AD0E0CC0FDD1FC557DE4FE5
:101C70000990D881C02DD4640DC0C11580E2D80769
:101C800008F0CDC0C11581E0D80708F05AC0C83EA1
:101C9000D10510F7CE01DF91CF911F910895C03685
:101CA00082E5D80718F5C03482E5D80708F068C087
:101CB000C03282E5D80708F05CC0C11582E5D807BC
:101CC00008F493C02C2F2695269580E2289F90013A
:101CD00011248C2F8370C1E0D0E002C0CC0FDD1F37
:101CE0008A95E2F7C22BD32BDD68D4CFC03A82E5C8
:101CF000D80760F4C03882E5D80708F456C0CF7121
:101D0000D0E0DC2FCC27C46FD06AC4CFC03C82E5C2
:101D1000D80708F45FC0C03E82E5D80708F09CCF22
:101D2000DC2FCC27CC27DF71C06FD06AB3CFC55A68
:101D3000D0E0CF53DE4FC881D0E0D064ABCFD065C8
:101D4000A9CF8D2F2BD1182FCE01992785D0C12F48
:101D5000D0E0DC2FCC27CC27DF71C82BD92B9ACF32
:101D6000CE01992779D0CC27DF70C82BD92BD06A28
:101D700091CFCF71D0E0DC2FCC27C16FD06A8ACF52
:101D80002C2F26952695277080E2289F90011124FC
:101D90008C2F8370C1E0D0E002C0CC0FDD1F8A958C
:101DA000E2F7C22BD32BDC6875CF2C2F2695269516
:101DB000277080E2289F900111248C2F8370C1E04E
:101DC000D0E002C0CC0FDD1F8A95E2F7C22BD32BE7
:101DD000DA6860CF8C2F8F71E1D0C82FD0E0DC2F74
:101DE000CC27CC27DF71D06255CF8C2F8F71D6D006
:101DF00055E0D695C7955A95E1F7CF70D0E0DC2F26
:101E0000CC27282F30E084FF06C044E0220F331F88
:101E10004A95E1F73327C22BD32BD0693BCF8D2FC7
:101E20008F71BCD0182FCE01992716D0C12FD0E0CA
:101E3000DC2FCC27CC27DF71C82BD92BD4CF462F52
:101E40007A3028F4673018F4672F0C94270390E059
:101E500080E00895F4DFDCCE82389105B9F1B0F46A
:101E60008133910509F47DC048F48932910509F464
:101E70006DC08A32910509F47BC0089585339105C0
:101E800009F45FC08933910509F10895833E9105F6
:101E9000D9F138F4803E910529F1823E910579F11E
:101EA0000895863E9105D9F1873E910509F43EC01B
:101EB000843E910541F520918F0321FF24C080913C
:101EC0008E0384FD19C087EE90E0089520918E0363
:101ED000237009F05AC020918F0323FF14C089E2B8
:101EE00090E0089520918E0320FD38C030918F033B
:101EF00030FF09C024FF43C090E080E008952091A6
:101F00008E0322FDF7CF089520918E0322FD3AC063
:101F100030918F0330FD39C024FFF5CFEDCF2091F4
:101F20008E0323FFF0CF24FDE7CFCDCF20918E038A
:101F300023FD2EC030918F0331FFEECF84EE90E071
:101F4000089520918E0325FFDECFC9CF20918E0307
:101F500025FD21C020918F0323FFD5CF89E390E099
:101F6000D2CF20918E0326FFCECF8AE290E0089553
:101F700020918E0326FFC7CF81E390E0089583EE82
:101F800090E0089582EE90E0089580EE90E008954C
:101F900086EE90E0089585E390E0089590918E0399
:101FA00092FF10C041E0282F2471243009F040E056
:101FB00031E0282F2871283009F030E0431711F064
:101FC0002CE0822793FF10C041E0282F2471243198
:101FD00009F040E031E0282F2871283109F030E085
:101FE000431711F02CE0822730918F0330FF10C08F
:101FF00051E0282F2171213009F050E041E0282FD5
:102000002871283009F040E0541711F029E08227A8
:1020100031FF10C041E0282F2171213109F040E04B
:1020200031E0282F2871283109F030E0431711F0F2
:1020300029E0822794FD877E0895109290031092E4
:10204000910310929203109293030895CF92DF921E
:10205000EF92FF926B017C01A3D281110EC00E940E
:10206000B624C61AD70AE80AF90AC0929003D09299
:102070009103E0929203F0929303FF90EF90DF9030
:10208000CF9008950F931F938BD2882329F00E943D
:10209000B6241F910F9108950E94B62400919003D9
:1020A000109191032091920330919303600F711F5F
:1020B000821F931FEECF74D2882311F00C94AA24B0
:1020C000E1DFCB01089580E00895CF939C01205E6D
:1020D0003245C1E02032310538F4FB01C581C11120
:1020E00003C08F710E94A0038C2FCF910895089593
:1020F00090E080E00E94832E21E0833E9E4F09F015
:1021000020E0822F089563EE7EEF90E080E00C9453
:10211000A22E6FEF7FEF90E080E00C94A22ECF9381
:10212000DF93EC0182E090E00E94762E8883DF91BD
:10213000CF910895FC01608182E090E00C94882E9C
:1021400083E090E00E94762E90E00895682F83E06F
:1021500090E00C94882ECF93DF93EC0184E090E024
:102160000E94832E99838883DF91CF910895FC018B
:102170006081718184E090E00C94A22E4F925F9276
:102180006F927F928F929F92AF92BF920F93CF9355
:10219000DF93EC0188E090E00E947E2E2B013C0151
:1021A000688359828A837B821C821D821E821F82E1
:1021B00083E290E00E94762E282F30E040E050E04D
:1021C00060E070E080E090E000E20E94C82D2429E9
:1021D000352946295729288339834A835B836C83B1
:1021E0007D838E839F83DF91CF910F91BF90AF90BE
:1021F0009F908F907F906F905F904F9008950F9376
:10220000CF93DF93EC01488159816A817B8188E01B
:1022100090E00E949A2E288139814A815B816C81ED
:102220007D818E819F8100E20E94E32D622F83E2F7
:1022300090E00E94882EDF91CF910F910895AB011D
:10224000BC018FE090E00C949A2EAB01BC0183E1BD
:1022500090E00C949A2E682F8EE090E00C94882EDB
:102260000895FECF08950895FECF0895E82FF0E079
:10227000E156FC4F80810895089580EA8A95F1F730
:10228000089500C00895F9CF08950895FECF0895E8
:10229000A5E0B0E0EEE4F1E10C949D2D81D1F82EA3
:1022A0006091A903882309F43EC085E0E82E8E01E1
:1022B0000F5F1F4FF8018E2D11928A95E9F7862F37
:1022C00090E0B80181569C4F89D18823B1F080916C
:1022D000940390E045E050E0B80181569C4F0E9485
:1022E000602E21E02093E102892B89F4F12CBCDFE0
:1022F0008F2D2596E6E00C94B92D8091E10288237C
:10230000A9F3F8011192EA94E9F71092E102A09181
:102310009403B0E0A156BC4F85E0F80101900D9206
:102320008A95E1F7E4CF70E061567C4F8091940389
:1023300090E081569C4FD7D1A9DFDACFF894E82FEF
:10234000E295EF70F0E031A1282F2F7081E090E04E
:1023500001C0880F2A95EAF7982F9095932391A3AF
:1023600092A1892B82A3789408950F931F93CF9302
:10237000DF93CBECD1E089918F3F09F0DFDF81E083
:10238000C03DD807C1F7C4ECD1E00BEC11E0899156
:102390008F3F09F0D3DF0C171D07C9F7DF91CF91ED
:1023A0001F910F910895B0E0A0E0E9EDF1E10C94E8
:1023B0009B2DEC01D62E062F10E0C80185539E4FB1
:1023C0007C01FC0180818F3F09F441C0F894E82F23
:1023D000E295EF70F0E091A18F7021E030E001C054
:1023E000220F8A95EAF7892F822B81A382A120955B
:1023F000282322A3789445DFE4ECF1E031E0C12CFE
:1024000021912F3F49F1A22FA295AF70B0E0909695
:102410008C9190E02F7002C0959587952A95E2F7F0
:1024200080FD1AC0832FC82A330F81E0EB3CF807E8
:1024300039F7F70180818F3F09F080DF61E0C1103B
:1024400001C060E08D2D1FDFC00FD11FC882CDB746
:10245000DEB7E8E00C94B72D80E0E5CF809108016D
:102460008091080195E0811190E09093A90385E0A7
:10247000891B8093940379DF8AE0EFE9F3E0DF01C1
:10248000982F1D929A95E9F7E5E9F3E0DF011D9297
:102490008A95E9F785E03CD0E4CEAAE0B0E0E3E538
:1024A000F2E10C949E2D8E010F5F1F4F8AE0F80120
:1024B00011928A95E9F7F12C6F2DC80174DFF3941E
:1024C000F5E0FF12F9CF4AE050E0B80185E993E06A
:1024D0000E94602E21E0009709F420E0892B41F052
:1024E0008AE0F801A5E9B3E001900D928A95E1F741
:1024F0006091A90370E061567C4F45E085E993E067
:1025000008D0182FC5DE812B2A96E5E00C94BA2D51
:102510000895B0E0A0E0EFE8F2E10C949B2D6C018F
:102520007B01042FC22F222379F081E08093E40203
:102530000E94AA249093E3028093E20280E0CDB748
:10254000DEB7E8E00C94B72DD091E402DD23B1F3BF
:102550008091E2029091E3020E942B24059770F390
:1025600010E0A801B601C7010E94602E892B31F04E
:10257000A801B601C7010E946D2ECD2F1092E40272
:102580008C2FDDCFCF930E94F12CC82F811102C078
:102590000E94ED2C8C2FCF9108958091E802089530
:1025A0008091E7020895FCCF0895ECDF8093E70265
:1025B000FADF8093E802F1DF80930801F1DF8111F7
:1025C00042C00895EDDF811101C040C0089581E04F
:1025D0009091E9029A3008F080E008950F931F93DC
:1025E000CF93DF93EC018B018091E9028A30B0F444
:1025F000B801CE0176D0C82F811122C08091E902A6
:102600008F3FB9F40E94AA249093E6028093E502DA
:102610008C2FDF91CF911F910F9108958091E5024A
:102620009091E6020E942B24843F914008F7C0E07D
:10263000EFCF8F5F8093E9028A3020F7C1E0E8CFC7
:102640001092E902E5CF0C94582508950C945B256F
:102650000895B0E0A0E0EFE2F3E10C949C2D790145
:10266000C82F880FDD0B41155105A9F0FE0193E03D
:10267000EE0FFF1F9A95E1F7E75FFE4F8181928190
:1026800086519D4F208130E04217530708F49A018C
:10269000A9010E946D2ECE010E943C26D82E8823CF
:1026A000D1F001151105B9F083E0CC0FDD1F8A953B
:1026B000E1F7FE01E75FFE4F438150E00417150785
:1026C00008F4A801C75FDE4F6C817D8166517D4FA4
:1026D000C7010E946D2E8D2DCDB7DEB7E7E00C94BB
:1026E000B82D22C108953EC10895A4E0B0E0EBE703
:1026F000F3E10C949F2D60910C0370910D03809178
:102700000E0390910F030E94342411E0643671058A
:102710008105910508F1B6DC6E5F7F4F8F4F9F4FAB
:1027200069837A838B839C8310E000E030E020E0B3
:1027300044E050E0BE016F5F7F4F82E08ADF182FD8
:10274000882351F00E94B62460930C0370930D030C
:1027500080930E0390930F03812F2496E4E00C9452
:10276000BB2DB0E0A0E0E7EBF3E10C94992D7C01E8
:102770005B016A012CDF01E010E0882311F00AE020
:1027800010E0C1E0D0E0B501C701F6010995811163
:1027900004C021960C171D072CF4CDB7DEB7EAE074
:1027A0000C94B52DCC9F9001CD9F300D300D112490
:1027B00090E080E045E34A95F1F70000019682172A
:1027C0009307C1F7E0CFABE0B0E0E9EEF3E10C94A2
:1027D0009F2DCE01019679D61B85609110037091D3
:1027E000110380911203909113030E9434246436E4
:1027F00071058105910510F41123B9F010E000E096
:1028000030E020E04BE050E0BE016F5F7F4F83E09F
:1028100020DF882361F00E94B62460931003709338
:10282000110380931203909313034CD681E02B96EF
:10283000E4E00C94BB2DA6E0B0E0E1E2F4E10C94FE
:10284000992D7B01C090D001D090D10101E010E022
:102850009E012A5F3F4F50E040E070E060E080E082
:10286000F8DE182F882309F447C056018FEFA81A05
:10287000B80A609108037091090380910A0390914E
:102880000B030E943424643671058105910560F1C3
:1028900005E010E09E012F5F3F4F50E040E070E008
:1028A00060E081E0D6DED82E65E070E0C5010E94D0
:1028B000C91D11E09E81981310E01D2141F10E9475
:1028C000B624609308037093090380930A039093DE
:1028D0000B0385E0FE013196A3E0B3E001900D9279
:1028E0008A95E1F711E013C065E070E0C5010E9430
:1028F000C91D9E818913CCCF85E0F6013196DE019A
:10290000119601900D928A95E1F71111E2CF85E0C1
:10291000E3E0F3E0D70101900D928A95E1F7812F72
:102920002696EAE00C94B52D0F931F93CF93DF9377
:10293000EC018B014BE154E114DF811106C080E012
:10294000DF91CF911F910F91089545E753E1B801B1
:10295000CE0107DF882399F343EE53E1B801CE019E
:1029600000DFEECFABE0B0E0E8EBF4E10C949B2DA0
:102970000091D0011091D101C801019625E0FB0121
:10298000DC0101900D922A95E1F765E070E00E946C
:10299000C91DF80180836681778180859185C0900B
:1029A000FF02D0900003E0900103F09002036C1549
:1029B0007D058E059F0549F06093FF02709300032B
:1029C000809301039093020341DB8BE0F8013A9678
:1029D000DE01119601900D928A95E1F7F801148AB3
:1029E0008B85882321F060E0CE0101964AD62B9694
:1029F000E8E00C94B72DA7C808950E9444240E94D3
:102A0000D42773D80E94EC2790D80E94F5270E9403
:102A1000F827F1DF0E940E2872D8F9CF90930702B1
:102A20008093060208950F931F93CF938C01FB01AF
:102A3000C581CC2309F43CC00E94EE0B8272F801E0
:102A4000E052F847EB30F10530F4E052F14D0C94D0
:102A5000602DE7D5C0E08C2FCF911F910F91089585
:102A6000882321F0D2D5F6CF8823E1F3C2D5F2CF67
:102A7000882321F03CD2EECF8823E1F32DD2EACF98
:102A8000882321F04ED2E6CF8823E1F33DD2E2CF76
:102A9000882321F060D2DECF8823E1F34FD2DACF52
:102AA000882321F0FAD0D6CF8823E1F3E6D0D2CF25
:102AB000C1E0D1CFEF92FF920F931F93CF93DF939B
:102AC0009B01682F31110EC0442329F0E82FF0E05C
:102AD000E659FC4F6491762F862FCDB7DEB7E6E03E
:102AE0000C94B92DC32FD0E0E82FF0E0442321F05F
:102AF000E659FC4FE491F0E046E0249FC001112428
:102B00000FEF10E0B8010E94172DAB01822F90E06B
:102B1000880F991F25E5249FB001259F700D112472
:102B2000861B970B982F990F980FB8016C1B7D0B84
:102B30006E9FD0016F9FB00D7E9FB00D11248B2F23
:102B4000939F90011124232F3327B801621B730B2D
:102B50006E9F90016F9F300D7E9F300D1124780184
:102B6000E91AF108EC9EB001ED9E700DFC9E700D0F
:102B70001124672F7727061B170B0E9FE0010F9F6D
:102B8000D00D1E9FD00D11247D2F9E2F4230510558
:102B900099F048F44115510569F04130510581F033
:102BA0007B2F832F07C04430510569F080F04630F9
:102BB0005105B1F7692F91CF9B2F8D2F7E2FFACF23
:102BC0007E2F932FF7CF9D2F7B2F8E2FF3CF732F39
:102BD0009B2FFBCF41E06ECF0895FCCF08959091DD
:102BE0002C01291B922FE091FF01F0910002242F6C
:102BF000462F682F892F90E009950895CF93DF9392
:102C0000762FE901682F842FE8DF962F672F9E012A
:102C1000482F892FE4DFDF91CF9108958091AA0397
:102C2000982F9C7F29F4837084608093AA03089571
:102C30008C3AE8F38370886AF8CFEAEAF3E085E03B
:102C4000808311828FEF828383831482E6E6F3E030
:102C50008281836082838AEA93E00C942C0D9091A8
:102C6000AE03933018F49F5F9093AE03882321F056
:102C70008AEA93E00C942C0D089581E0F0CF9091B6
:102C8000AE03992319F091509093AE03882321F05D
:102C90008AEA93E00C942C0D089581E0F0CF0F9315
:102CA0001F93CF938091AA0380FF09C0E091030294
:102CB000F09104020995CF911F910F910895C09151
:102CC0002E010091FF011091000280912F01C81781
:102CD00068F780912C019C2F981B892F20E040E001
:102CE00060E090E0F8010995CF5FEFCFEF92FF929F
:102CF0000F931F93CF93DF93D82F162F042F80911C
:102D0000AA0380FF0BC0C0912E01E090FF01F0905C
:102D1000000280912F01C81730F0C1DFCDB7DEB7B8
:102D2000E6E00C94B92D80912C019C2F981B892FE3
:102D3000202F412F6D2F90E0F7010995CF5FE9CF4C
:102D4000762F9091AA0390FF08C0682F842F45DF4B
:102D5000962F672F482F892FC9CF0895CF93DF93E0
:102D6000EC01EC81F0E0EB59FD4F4491EAEAF3E02D
:102D700062818181E5DF8C818F5F8C83DF91CF91D0
:102D80000895CF93DF93EC01EAEAF3E04381628197
:102D90008C81D6DF8C818F5F8C83DF91CF910895FA
:102DA000CF93DF93EC014091AD039C81892F81701B
:102DB00090FD842F692F627091FD642F92FF40E097
:102DC00095DF8C8190E00196877099278C83DF9145
:102DD000CF910895B0E0A0E0E0EFF6E10C949C2DD7
:102DE000D82FF62E142FE22E9091AA0390FF33C015
:102DF0002091AB03281308C08091AC03861304C054
:102E00008091AD03841729F08091680382608093DC
:102E10006803E92FE695E695AE2FB0E0AE52BE4FBF
:102E20008C91809366039C7F9430D1F46D2F7F2D1D
:102E3000812FD3DE962F672F482F892F57DFD0930E
:102E4000AB03F092AC031093AD03EE2021F08AEABD
:102E500093E00E942C0DCDB7DEB7E7E00C94B82DBF
:102E6000823019F41091AD03EACF863051F18930E8
:102E700041F1893121F7E9518E2F8170D82EE695E5
:102E8000F0E0EB59FC4FC49100E06091300106176F
:102E900010F005DFD4CF0C9FC001112470E00E9418
:102EA000172D8D2FD1100BC0860F20912E01200FD2
:102EB0003327331F412F6F2DA1DE0F5FE6CF861B17
:102EC000F4CFD22FBCCFEAEAF3E09181282F4381DF
:102ED000628188E0890F7ECF81E0F5CFEAEAF3E0F6
:102EE0009181282F4381628188EF890F73CF81E020
:102EF000F5CFEAEAF3E0628128E0620F08F46FEFB1
:102F0000282F4381818166CF81E0F3CFEAEAF3E0A5
:102F1000628128E0621B08F460E0282F43818181F0
:102F200059CF81E0F3CFEAEAF3E0438128E0420F92
:102F300008F44FEF282F628181814CCF81E0F3CFDD
:102F4000EAEAF3E0438128E0421B08F440E0282F3E
:102F5000628181813FCF81E0F3CF20E03BCFEF92D0
:102F6000FF921F93CF93DF93EC0110E0EE24EA94DD
:102F7000F12C60913001161768F091DE9A818C81F6
:102F800090FF1DC08F5F8C83DF91CF911F91FF90C9
:102F9000EF90089520912E01210F3327331F70E009
:102FA000C7010E942B2D962F8C814091AD0360911B
:102FB000AC03199F800D112421DE1F5FDACF8150F1
:102FC000E2CFB0E0A0E0E7EEF7E10C94972DEC0142
:102FD0008A81BB24BA9480FD02C0BB24B3948C8147
:102FE00081110AC081E0B81225C080913001815062
:102FF0008093150381E08C83A12CE090FF01F09079
:1030000000029EE0992E80913001A816B0F047DEB4
:1030100080911503F1E0BF1256C081114FC080911D
:1030200030018150809315031C82CDB7DEB7ECE0F0
:103030000C94B32D10921503DDCF80912E01909149
:103040002C01891B8A0D20E040E060E090E0F70150
:10305000099504E010E0812CCA2CD12C8091150335
:10306000880D8F302CF1692D0E940A2D892F082E92
:10307000000C990BC816D906A9F420912E012C0D2D
:103080003D2D311D8091AD03809FA001819F500D8A
:10309000112455954795559547956091AC038091BE
:1030A000AB03ACDD8B0C01501109C1F6A394ABCF7F
:1030B00087FFDDCF90913001890FD9CF8150809368
:1030C0001503BC82B2CF90E001966091300170E0B0
:1030D0000E942B2D809315038C83A7CFEF92FF9234
:1030E0001F93CF93DF93EC018C81811109C081E0A4
:1030F0008C831092140392E090932B0180932A0109
:1031000010912E01E090FF01F090000280912F01BC
:10311000181770F110E0E090FF01F090000260914C
:103120003001161790F1BBDD80912A012091140324
:10313000280F2093140390912B01980F90932B014B
:10314000191654F4022E000C330B409130014150FB
:10315000550B2417350734F0819580932A0181306F
:1031600009F41C82DF91CF911F91FF90EF90089599
:1031700080912C01912F981B892F20E040E060E086
:1031800090E0F70109951F5FC1CFE12FF0E070E0FB
:10319000CF010E942B2D20912E01820F209114032C
:1031A000022E000C330BE217F3079CF020912B0149
:1031B000022E000C330B2E173F075CF0282F30E057
:1031C0004091AD036091AC038091AB0317DD1F5FAD
:1031D000A6CF90912C01891B20E040E060E090E0B8
:1031E000F7010995F4CFB0E0A0E0E9EFF8E10C9425
:1031F000972DEC014C81042F10E09801D8010E941A
:103200006C2D9B01AC010E94812D4B015C01E0E221
:10321000F0E0E01BF10BA5E5B0E0AC019B010E94E2
:10322000812D6B017C019F01DF010E94662D9B01B6
:10323000AC010E948B2D9B01AC01280D391D4A1D4C
:103240005B1DC701B6010E943E2DF22E822F90E039
:1032500039E23F1518F143E0249F90011124359580
:103260002795122F109500E085E5E82EEF18809144
:103270003001081718F113DD9C8181E0992319F0C2
:10328000903219F48FEF8093290180912901890FE1
:103290008C83CDB7DEB7ECE00C94B32D25E530E0A0
:1032A000A901481B590BCA019A01220F331F280F8D
:1032B000391F37FFD4CF2F5F3F4FD1CF8E2D01FD68
:1032C0008F2D20912E01200F3327331F412F609126
:1032D000AC0394DC0F5FCBCF0F931F93CF93DF939F
:1032E0008C01D0E0C0E0909130019C171D0609F0E0
:1032F0006CF4D5DCF801848190E001968170992707
:103300008483DF91CF911F910F910895F80144813B
:1033100020912E012C0F3D2F311D6091AC03809127
:10332000AB0396959C171D0641F03CF0442339F001
:103330004091AD0363DC2196D6CF4423C9F340E02E
:10334000F9CFB0E0A0E0E7EAF9E10C94932DFC019D
:103350006280448081E08483E5E6F2E07490E4EEEC
:10336000F2E0E491C091AD03C695C158D0E0CC0F16
:10337000DD1FCD2FDD27812C25E0922EAA24AA94D3
:10338000B12C55245A94E719EE2EF12C809130017E
:10339000881630F084DCCDB7DEB7E0E10C94AF2DB9
:1033A000C82CD12C82E0861568F09C9CF0019D9C75
:1033B000F00D1124E75EFC4F8091AB038083809178
:1033C000AC03818341101BC09C9CF0019D9CF00DBF
:1033D0001124E75EFC4F1382128220912E012C0DE6
:1033E0003D2D311D9C9CF0019D9CF00D1124E75E4C
:1033F000FC4F42816181808101DC8394C7CF9C9C1A
:1034000080019D9C100D1124075E1C4FF8018381E3
:103410008823F1F081508383859DC001112464814C
:1034200070E00E94172DFB01FF27EB59FD4F84919F
:10343000E82FE719E59DC0011124B7010E94172D5F
:103440008091AD03689FB0011124F8017283C5CF4C
:103450000E94452EB5010E942B2D8C179D070CF064
:10346000BCCFF2E0F61598F40E94452EB5010E94FB
:103470002B2DF80180830E94452E2091AC032695C8
:10348000622F70E00E942B2D280FF80121839C9C55
:10349000F0019D9CF00D1124E75EFC4F128280919B
:1034A000AD03893C58F088EC9C9CF0019D9CF00D8C
:1034B0001124E75EFC4F848383838FCF8431A0F790
:1034C00084E1F2CF10926803089528E0EAEAF3E07D
:1034D000DC0101900D922A95E1F72091660330916D
:1034E000670340916803FC01208731874287089574
:1034F000E6E6F3E011828281846082830895EAEA3D
:10350000F3E080818E7F8083F3DFE6E6F3E0828163
:1035100081608283C4CBEAEAF3E080818E7F80837E
:10352000CF010E942C0DE4DFE6E6F3E082818160AA
:103530008283B5CB6091AA036695669570E04BE0F7
:1035400050E081E391E00E94532E892B19F481E031
:10355000809367030E945B109093600380935F03E6
:103560008091680384608093680308959091AA0312
:1035700090FF29C09370811127C094609093AA0393
:1035800080916803816080936803662321F08AEA52
:1035900093E00E942C0D6091AA036695669570E0F9
:1035A0004BE050E081E391E00E94532E892BA1F083
:1035B0009FDF81E0809362034091AD036091AC0393
:1035C0008091AB03CACC08958B3210F0986AD6CFA5
:1035D000880F880F982BD2CFADDFEBCF682F90915B
:1035E000AA039695969581E0890F8B3208F081E0C9
:1035F000BDCF81E0F3CF682F9091AA039695969561
:103600008FEF890F09F48AE2B1CF81E0F4CF61E056
:10361000ADCFEAEAF3E0808181608083869586956C
:10362000F6CF8091AA0380FF01C075CFF2CF60E092
:103630009DCF80916503811123C08AEA93E00E94A7
:103640002A0D809168038360809368038091AA03A8
:103650008C7F29F4F2DA8AEA93E00E942A0DDEDAFE
:1036600047DFE091FD01F091FE0109958091AA03E9
:1036700080FF03C086958695DADF81E0809365033D
:1036800008951F93CF93DF93EC01162F8A8580FF57
:103690000CC0888180FF22C08091AA038160809342
:1036A000AA0388818695869561DF8A8581FF05C09A
:1036B000212F4B816A8189818DDB8A8582FF04C03D
:1036C0008985882369F036DF8A8583FF03C081E01E
:1036D00080936203DF91CF911F91089510DFE5CFB2
:1036E00007DFF2CFEF92FF920F931F93CF93DF93F9
:1036F00080916703882309F464C080916603E09198
:10370000AA03E695E695E81BE0936103823009F091
:103710005DC0F0E0EF59FD4FE491CE2FD0E00EEA0E
:1037200016E180916203882361F0109262030E9487
:103730005B109093600380935F0310926403109278
:1037400063030E945B10E0915F03F09160039C01B2
:103750002E1B3F0B2F3F3F47A0F52091180322233C
:10376000B1F0109218032091160330911703821BB9
:10377000930B8F3F9F4758F4205D3A4830931703CF
:103780002093160380916803886080936803E0901B
:103790006303F0906403EC0FFD1FF0936003E0936C
:1037A0005F038FE593E0F8010995809163039091A1
:1037B0006403892B31F4E114F10419F081E0809362
:1037C0001803CDB7DEB7E6E00C94B92D863049F486
:1037D000F0E0E25AFD4FE491CE2FD0E001EC16E18B
:1037E000A0CF893051F4E695F0E0E55AFD4FE49121
:1037F000CE2FD0E00FEA17E194CF8F3051F4E69549
:10380000F0E0E85AFD4FE491CE2FD0E001EE17E151
:1038100088CF853149F4F0E0EB5AFD4FE491CE2F8B
:10382000D0E00EE618E17DCFC8E2D0E003EF18E16A
:10383000883109F476CF833239F4E3E5F2E0C591BB
:10384000D49100ED16E16DCFC4EFD1E00CE619E1A3
:10385000843209F466CFC0EDD7E00CEE15E1853275
:1038600009F05FCF8E2F63E00E94FE2CE92FF0E07D
:10387000E05BFD4FE491CE2FD0E001EA19E151CF9A
:10388000089530CF0895539A0895FC01EE0FFF1F5D
:10389000E80FF91FEE54FC4F6183408322830895A3
:1038A000E2EBF3E0818360834283339693E0EC3D67
:1038B000F907C1F708953BB1377F2BB128604FB7A7
:1038C000F89482EB93E0FC015191CF0168E02BB9B1
:1038D000000000C057FF3BB9550F000000C000C0FA
:1038E00000C03BB900C06A9591F7F3E08C3D9F079B
:1038F00051F74FBF8FE594E00197F1F700C000004A
:1039000008950C941C0D089580E00E94361181707A
:1039100008950E944D122FEF86E791E021508040DC
:103920009040E1F700C000000E944D12EDDF8823B7
:1039300019F0E7DF0C94E6240895EBCF0895EBEF40
:10394000E80FEF3308F066C0F0E0E551F14D0C945C
:10395000602D0E941A0D81E008958091E002807F21
:103960008093E00281E080936C0308950E94C80375
:10397000F2CF9091E002892F8E7F90FF816080933B
:10398000E00280FDE8CF817F8093E002E4CF909158
:10399000E002892F8D7F91FF82608093E00281FF9A
:1039A000DACF8091E0028160EFCF9091E002892F21
:1039B0008B7F92FF84608093E00282FDF2CFCBCFB9
:1039C0009091E002892F877F93FF88608093E002C7
:1039D00083FDE7CFC0CF0E94BC0790918E03892F53
:1039E00097FB87F9805880938E03B5CF81E090E0F4
:1039F0000E9404080E94BC07AECF895321E030E04A
:103A0000A90102C0440F551F8A95E2F7CA01F0CF01
:103A10008D51F4CF80E0089580E00895FDCF0895A2
:103A2000CF93C82F80916C038130A9F0882331F0A7
:103A3000823089F110926C0380E00BC00E94EE0B83
:103A40008232D1F78C2FE8DF811119C08C2F77DFFC
:103A50008170CF9108950E94EE0B823299F38C2FE2
:103A6000DDDF81110AC0C43199F060F4CB3029F058
:103A7000C03171F782E080936C0381E0E9CF81E08F
:103A800090E0E6CFC93221F0C833B9F380E0E0CF4F
:103A900010926C03FBCFC93209F440C0F0F4C4317A
:103AA000E9F1A8F481E0C730A1F68093430184E1F5
:103AB000809342018AE0809341018EE1809340012E
:103AC00088E080933D0188E280933C0104C082EE4F
:103AD0008C0F8A3070F181E0BCCFC03509F450C042
:103AE000B8F48AE0CF34B9F7E0916903F0916A0342
:103AF000309789F32081082E000C990B820F911DBD
:103B00008F3F910509F00CF43FC08FEF8083E3CF26
:103B1000C135C1F181E0C23539F39BCF80916B0390
:103B20008823C9F210926B0310926A031092690302
:103B3000D2CFCD51C0936B03C330C9F048F4C1302C
:103B400099F082E491E0C23051F010926B03C3CF40
:103B5000C53099F078F08CE391E0C630B1F79093DE
:103B60006A0380936903B7CF83E491E0F8CF81E4DF
:103B700091E0F5CF80E491E0F2CF8DE391E0EFCFDB
:103B800086EFB2CF8FEFB0CF97FFC0CF1082A3CF19
:103B90000895FC01680F791F8FEF91E3E617F7078F
:103BA00009F408952191822728E030E087FF06C0BC
:103BB000880F892721503109C9F7F0CF880FFACF34
:103BC000CF93DF93EB0186319C4701F50E94EE0B0A
:103BD0009D81992391F08A7A91E009F490E0909385
:103BE0006D03811108C089E24BD50E94990C80E0D9
:103BF000DF91CF91089585E3F7CF80916D03811117
:103C000003C089E254D5F1CF85E3FCCF81E0F0CF4A
:103C1000CF93DF93EC01FB018581882309F4CEC0AB
:103C20009E0130572332310508F0AEC08EE893E094
:103C30000E94260DFE01E150F047E232F10520F42A
:103C4000E65DF04D0C94602D80918E038160809331
:103C50008E0393C080918F03886080938F038DC003
:103C600080918E038260F3CF80918E038460EFCFCA
:103C700080918E038860EBCF80918F038160EDCFC0
:103C800080918F038260E9CF80918E038061DFCFC6
:103C900080918E038062DBCF80918E038064D7CFCA
:103CA0000E94BC0780918E038068D1CF80918E03E3
:103CB0008C60CDCF80918F038360CFCF80918E03B6
:103CC0008E7FC5CF80918F03877FC7CF80918E0372
:103CD0008D7FBDCF80918E038B7FB9CF80918E0376
:103CE000877FB5CF80918F038E7FB7CF80918F0371
:103CF0008D7FB3CF80918E038F7EA9CF80918E036D
:103D00008F7DA5CF80918E038F7BA1CF0E94BC07B2
:103D100080918E038F779BCF80918E03837F97CF87
:103D200080918F038C7F99CF80918E0382FB99279E
:103D300090F921E0922790FB82F990FB83F987CFDD
:103D400080918F03982F909591708E7F892B90FB97
:103D500081F983CF90918E03892F8F7B96FF8064AA
:103D600076CF0E94BC0790918E03892F97FB87F92D
:103D700080586DCF81E00E942E0D8EE893E00E9466
:103D8000280D0E94BC0780E0DF91CF91089580E06C
:103D9000F2CF90918E03892F8F7E94FF806157CF51
:103DA00090918E03892F8E7F90FF816050CF9091EC
:103DB0008F03892F877F93FF88604FCF81E0E4CF07
:103DC000282F35EB2303C001112497FF04C080582E
:103DD0009109892F089580589F4FFBCF80917403DC
:103DE00080FF0DC06091410170E0660F771F603861
:103DF000710570F56115710569F1862F089581FFD0
:103E000007C06091410184E0689FB0011124EFCFA9
:103E10006091410182FD0AC0809173038823A9F05B
:103E20002091400160914101821710F088E0ECCFB1
:103E3000869FC001112433E0880F991F3A95E1F75E
:103E4000622F70E00E942B2DD2CF68E070E0D5CFBA
:103E50008FE7089581E008958091740380FF0CC07E
:103E600060913D0170E07595679575956795611551
:103E7000710549F1862F089581FF06C060913D01CB
:103E800070E075956795F3CF60913D0182FD0BC0A1
:103E9000909172039923A1F060913C0180913D01C2
:103EA000961738F0682F70E06038710500F38FE7DF
:103EB0000895899FC001112470E00E942B2DF4CF3A
:103EC00061E070E0D7CF81E008958D3C29F486DF72
:103ED00081958093780308958E3C11F47FDFF9CFAC
:103EE0008F3C29F47BDF8195809377030895803D93
:103EF00011F474DFF9CF893D21F4AEDF80937903AB
:103F000008958A3D19F4A8DF8195F8CF8B3D29F4F7
:103F1000A3DF819580937A0308958C3D11F49CDF93
:103F2000F9CF9FE2980F983070F4815D990B21E0F2
:103F300030E001C0220F8A95EAF780917603822B48
:103F40008093760308958D3D31F4809174038160F0
:103F50008093740308958E3D21F4809174038260F0
:103F6000F7CF8F3DB9F7809174038460F1CF409112
:103F700077038D3C59F48091780387FF0DC0109230
:103F8000780341110BC01092730308C08E3C81F47A
:103F90008091780318169CF3442381F08091790373
:103FA00090917A03892B09F05AC0109272030895F8
:103FB0008F3C49F447FFF0CF10927703809178034C
:103FC0008111ECCFE0CF803D19F41416ACF3E4CFAF
:103FD00090917903893D29F41916F4F6109279032A
:103FE000DBCF8A3D19F497FFD7CFF8CF90917A03B2
:103FF0008B3D29F497FFD0CF10927A03CDCF8C3D23
:1040000019F41916CCF3C8CF9FE2980F983090F4AA
:10401000815D990B21E030E0B90102C0660F771F86
:104020008A95E2F7CB01809590917603892380935E
:104030007603B2CF8D3D31F4809174038E7F8093EF
:104040007403AACF8E3D21F4809174038D7FF7CF46
:104050008F3D09F0A1CF809174038B7FF0CF08953D
:1040600079D49C019091770380917803982B21F06B
:1040700030937103209370039091790380917A03B8
:10408000982B21F030936F0320936E0385E793E024
:10409000EBC186E0E5E7F3E0DF011D928A95E9F7E1
:1040A0001092730310927203109274030895FC012E
:1040B000828181110EC0838181110BC084818111A5
:1040C00008C091E08581811101C090E0892F817045
:1040D000089581E0FCCFA6E0B0E0E1E7F0E20C94C7
:1040E000A02D86E0E5E7F3E0DE01119601900D9248
:1040F0008A95E1F710927703109278031092790372
:1041000010927A038B819C81892B81F080917003BE
:1041100090917103A0D3AC01909173039923A9F1FD
:10412000809142018417150608F43CC08D819E8160
:10413000892B89F080916E0390916F038CD3AC0131
:1041400090917203992309F463C080913E01841712
:10415000150608F46BC0BE016F5F7F4F85E793E0E3
:10416000D6D2811104C085E793E0A1DF811178DF09
:1041700086E0FE013196A5E7B3E001900D928A95A5
:10418000E1F72696E3E00C94BC2D209143018AE0F0
:10419000289F900111242417350740F69F5F9093C4
:1041A000730302C09F3FD1F71B81112351F016DE2C
:1041B0009FEF11160CF491E0899F802D11248093BC
:1041C00077031C81112351F009DE9FEF11160CF4C7
:1041D00091E0899F802D112480937803809177034B
:1041E000882309F4A3CF10917803112309F49ECFFB
:1041F000E7DD882349F080937703812FE1DD882371
:1042000029F08093780392CF81E0F5CF81E0F9CF58
:1042100020913F018AE0289F90011124241735073F
:1042200008F099CF9F5F9093720302C09F3FD1F730
:104230001D81112351F010DE9FEF11160CF491E057
:10424000899F802D1124809379031E81112351F0C1
:1042500003DE9FEF11160CF491E0899F802D11244D
:1042600080937A0380917903882309F474CF1091A5
:104270007A03112309F46FCFA3DD882349F08093DB
:104280007903812F9DDD882329F080937A0363CF02
:1042900081E0F5CF81E0F9CF0F931F93CF93DF93A8
:1042A000C42FD22FFC0185818823C1F040937D0368
:1042B00051D390937C0380937B0380E28C0F8830F2
:1042C00040F4C77081E001C0880FCA95EAF70E94E8
:1042D000A805DF91CF911F910F91089510917D0353
:1042E000141331C080917B0390917C03B4D2883C3D
:1042F000910548F5C0E2CD0F1D17B9F080E2810F9E
:10430000883040F4177081E001C0880F1A95EAF7F1
:104310000E94AD05C83048F481E09D2F977001C020
:10432000880F9A95EAF70E94A805802F0E94A105A0
:10433000C83078F6D77081E001C0880FDA95EAF7C7
:104340000E94AD05C6CF80E28C0F883010F6C77092
:1043500081E001C0880FCA95EAF7F2CF0F93DB0125
:1043600088519C478730910598F5FC01E45BF04D3E
:104370000C94602D06E221EE41EE6AE17CE7CD016E
:104380008BDF80E00F91089507E225EE45EE6BE1AB
:104390007CE7F5CF06E221EE40EE68E17CE7EFCF67
:1043A00007E225EE44EE69E17CE7E9CF06E221EE83
:1043B00042EE6CE17CE7E3CF07E225EE46EE6DE1ED
:1043C0007CE7DDCF08E221E045EE6EE17CE7D7CF68
:1043D00015968C91882319F010927D03D3CF81E03C
:1043E000D1CF90938403809383030895FBD191E010
:1043F000813009F090E0892F08950E94D012811138
:1044000003C080917E030895E0918303F0918403BB
:10441000309739F00190F081E02D309711F0099537
:10442000089580E00895E9CF0895E0918303F09125
:104430008403309731F00280F381E02D309709F04A
:1044400009950895E0918303F0918403309759F022
:1044500024813581232B39F026E0DC012C93048064
:10446000F581E02D09950895E0918303F09184038F
:10447000309759F026813781232B39F022E0DC0177
:104480002C930680F781E02D09950895A3E0B0E014
:10449000ECE4F2E20C94A12D20918103309182038F
:1044A00028173907B1F09093820380938103E0913C
:1044B0008303F0918403309761F00084F185E02D4F
:1044C000309739F023E029839B838A83CE010196BC
:1044D00009952396E2E00C94BD2DA3E0B0E0E3E75C
:1044E000F2E20C94A12D20917F03309180032817D4
:1044F0003907B1F09093800380937F03E0918303A9
:10450000F0918403309761F00084F185E02D3097BD
:1045100039F024E029839B838A83CE010196099593
:104520002396E2E00C94BD2DCF93DF93C09106015A
:10453000D091070122965ADF882381F080918E0363
:1045400087FF0CC0C0910401D091050122969EE125
:1045500080E0915028F4DF91CF91089596E0F8CF54
:1045600029912223B1F38F5FF4CFCF93C82F81110C
:1045700002C080E023C03ADF882311F180918E03CE
:1045800087FF1EC0EC2FE695E695E695EE3188F79D
:104590008091040190910501E80FF92FF11D22810E
:1045A00030E0C77081E090E002C0880F991FCA9583
:1045B000E2F72823392381E0232BD9F2CF91089504
:1045C0008091060190910701FC0132960896219195
:1045D0002C1721F0E817F907D1F7CBCF81E0EECF08
:1045E0009C01FC0132969FEF80E04191461751F00B
:1045F0009F3F19F4411101C0982F8F5F8630A9F7B2
:104600009F3F09F40895290F311D97FD3A95F9014F
:1046100062830895FC01329608962191261303C007
:10462000DF0111971C92E817F907B9F70895E62FF3
:10463000E695E695E695EE3168F4E80FF92FF11D61
:10464000677021E030E001C0220F6A95EAF78281AD
:10465000822B82830895E62FE695E695E695EE3166
:1046600070F4E80FF92FF11D677021E030E001C010
:10467000220F6A95EAF720958281282322830895E4
:10468000CF93C82FB3DE6C2F882359F080918E030F
:1046900087FF07C08091040190910501C8DFCF9189
:1046A000089580910601909107019ADFF8CFCF938A
:1046B000C82F9CDE6C2F882359F080918E0387FFD2
:1046C00007C08091040190910501C5DFCF91089545
:1046D00080910601909107019DDFF8CF87DE882346
:1046E00079F080918E0387FF0BC0E0910401F09177
:1046F000050132968EE1DF011D928A95E9F7089552
:10470000E0910601F0910701329686E0F4CFDC01DA
:10471000FB0111969C9111978181981322C01296EA
:104720008C911297882319F0928189131AC01396DD
:104730008C911397882319F09381891312C01596D1
:104740008C911597882319F0958189130AC01496C6
:104750009C91992321F081E02481291303C080E0FA
:1047600001C081E0817008950895FECF0895811100
:104770000CC081E080934701609144017091450134
:104780008091460190914701F0CF82E0F3CF83E022
:1047900080934701609144017091450180914601E9
:1047A00090914701E2CFE3CF089581E080934701E4
:1047B00060914401709145018091460190914701BB
:1047C000D4CFF3CF089591E0811101C090E0909390
:1047D000460160914401709145018091460190919C
:1047E0004701C3CF809146010895809345016091B0
:1047F0004401709145018091460190914701B5CFE8
:104800008091450108958093440160914401709125
:1048100045018091460190914701A7CF80914401C5
:10482000089508950895FECF089508950895F9CF45
:104830000895CF93FADF0E944D12F8DFC0E08C2F6D
:104840000E943611811105C0CF5FCA30C1F7CF91E8
:10485000089581E0FCCFCF93DF93EC017BD08C1BDC
:104860009D0BDF91CF910895CF92DF92EF92FF924F
:104870006B017C017BD06C197D098E099F09FF902B
:10488000EF90DF90CF90089585B7806885BF85B79A
:10489000806885BF08951F921FB61F9211248F93C1
:1048A0009F93AF93BF9380918503811113C0809133
:1048B000DC039091DD03A091DE03B091DF0341960C
:1048C000A11DB11D8093DC039093DD03A093DE0353
:1048D000B093DF03BF91AF919F918F911F901FBE47
:1048E0001F9018958091E403843031F10E943804C0
:1048F0001092850388E190E020E40FB6F894A89523
:10490000809360000FBE2093600083B7817F846036
:1049100083BF83B7816083BF7894889583B78E7F88
:1049200083BF0FB6F894A89580916000886180934A
:104930006000109260000FBE08950E94BC070C94A6
:104940003C0482E084BD93E095BD9AEF97BD8093CF
:104950006E0008952FB7F8948091DC039091DD03E9
:10496000A091DE03B091DF032FBF08952FB7F89415
:104970006091DC037091DD038091DE039091DF0391
:104980002FBF089578941F921FB61F9211248F9302
:104990009F93AF93BF938091DC039091DD03A0912F
:1049A000DE03B091DF030196A11DB11D8093DC03EE
:1049B0009093DD03A093DE03B093DF03BF91AF912B
:1049C0009F918F911F901FBE1F90189587E797E7C3
:1049D000909301088093000888E19AE00FB6F8945C
:1049E000A895809360000FBE90936000FFCF88E190
:1049F0009AE00FB6F894A895809360000FBE90934C
:104A00006000FFCF8EE1489B02C08150E1F7489BD8
:104A1000FECF0895589880E28A95F1F7589A089544
:104A2000FC013BE03A95F1F798E020E080E031E0CE
:104A300040E14A95F1F7880F489B02C08160232727
:104A400042E04A95F1F7000040E14A95F1F79150B4
:104A500079F790E19A95F1F799B132E03A95F1F74B
:104A6000000040E14A95F1F7917092272081920F62
:104A700090830895A1E0B0E0E0E4F5E20C949D2D70
:104A800019828C017C01E60EF11C0E151F0541F404
:104A900081E09981911180E02196E6E00C94B92D96
:104AA000B1DFCE010196BCDFF80181938F01EDCF1C
:104AB000509A589A08955098589AE89AE9E6F0E082
:104AC00080818C7F808308956150770B91E001C0D5
:104AD000990F6A95EAF720E031E0911108C022238E
:104AE00091F0589A80E28A95F1F758980895492FE5
:104AF000482339F0589A232740E24A95F1F79695D2
:104B0000ECCF5898F9CF5898EDCFFF920F931F93A1
:104B1000CF93DF93EC018C01060F111DC017D10755
:104B200029F4CDB7DEB7E5E00C94BA2DF99072DF29
:104B300068E08F2DC9DFF2CF1F920F920FB60F9250
:104B400011240F931F932F933F934F935F936F9372
:104B50007F938F939F93AF93BF93EF93FF93CF93E5
:104B6000DF930F92CDB7DEB719824CDFCE010196ED
:104B700057DF082F069506950695282F2295257054
:104B8000902F9570290F922F937026952695920F4E
:104B9000982797708981982B09F058C0053008F044
:104BA00055C080E18A95F1F7589A509A82E08A952B
:104BB000F1F700C0589888E0089F80011124D801BF
:104BC000A75FBE4F1696ED91FC9117973097A9F00D
:104BD0006091D0017091D10114962D913C9115975F
:104BE000260F371F11968D919C911297680F791F90
:104BF00013964C9113978C910995F801E75FFE4F3E
:104C00006381662349F02091D0013091D1018481E4
:104C10009581820F931F79DFFDDE80E18A95F1F7A0
:104C200058985098589A80E18A95F1F7F801E75F13
:104C3000FE4F6081662349F02091D0013091D1016F
:104C400081819281820F931F15DFDCDE0F90DF914F
:104C5000CF91FF91EF91BF91AF919F918F917F91F4
:104C60006F915F914F913F912F911F910F910F90F5
:104C70000FBE0F901F9018950F931F93CF93DF9344
:104C8000EC0105970CF049C0F894509A589885E0CB
:104C90008A95F1F700009C2F969595708C2F857062
:104CA000980F892F83709695969523E0CC0FDD1F82
:104CB0002A95E1F7980F8E01092BACDE00C068E061
:104CC000802F02DF80E18A95F1F75098589A489B2F
:104CD0001DC087E090E048991BC0FE01E75FFE4FD2
:104CE00063816623F1F02091D0013091D10184815C
:104CF0009581820F931FBEDE811113C0509A589A7E
:104D00007894DF91CF911F910F91089500C0DFCF6C
:104D1000019729F4509A589A789480E0F2CF00C015
:104D2000DACF70DE80E28A95F1F75898509A80E1E8
:104D30008A95F1F7C75FDE4F6881662349F02091BD
:104D4000D0013091D10189819A81820F931FDDDEDC
:104D500061DE789481E0D5CF9B01BA019091E403A4
:104D60009430E1F48F708093E9009FEF8091E80028
:104D7000915085FD06C085ED8A95F1F700009111EF
:104D8000F5CF8091E80085FF09C050E040E0C901FF
:104D9000BAD18091E8008E778093E800089543E0CF
:104DA00050E0BC0182E0D8CF46E050E0BC0182E098
:104DB000D3CF40E250E0BC0182E0CECFCF93DF936F
:104DC000EC0110DD48E050E0BE0181E0C5DF88E085
:104DD000FE01A6E8B3E001900D928A95E1F7DF911C
:104DE000CF9108958091E303811107C01AD371D345
:104DF0008091E20084608093E20008951092E303C2
:104E00000895D3DC81E0DFCC6091E00381E06111A3
:104E100001C080E0BCCC9091E40381E0943009F0C3
:104E200080E06091E003BFCC42E061EC81E075D2AC
:104E300042E261EC82E071D29091E40381E094302F
:104E400009F080E06091E00392CC8091E60383302A
:104E500009F45EC030F48130C1F1823009F494C0AD
:104E600008958A3009F483C08B3009F46BC089300F
:104E700009F04DC08091E503813209F048C080916E
:104E8000E9039091EA03029708F041C08091E8009D
:104E9000877F8093E8008091E80082FF34C0909182
:104EA000F3008091F200029731F48091F10081309B
:104EB00011F0863019F48091F10097DC8091E800C0
:104EC0008B778093E8005DD222C08091E503813A20
:104ED000F1F48091E800877F8093E8008091E903F6
:104EE0009091EA03892B59F468E086E893E070E03A
:104EF00057D18091E8008B778093E800089560E0B7
:104F000090E080E0F4CF8091E4038111C4CF089554
:104F10008091E503813AD9F78091E9039091EA0302
:104F2000892BA9F78091E800877F8093E800809122
:104F3000E80080FFFCCF56DC8093F1008091E80010
:104F40008E77BFCF8091E503813209F78091E90325
:104F50009091EA03892BD9F68091E800877F8093AE
:104F6000E8000FD28091E7032EDC0C94BC078091FF
:104F7000E503813261F68091E800877F8093E80045
:104F800000D28091E8033FCC8091E503813A09F09B
:104F9000BECF8091E800877F8093E8008091E80091
:104FA00080FFFCCF3BDCC8CF84B7877F84BF0FB6C0
:104FB000F894A895809160008861809360001092B9
:104FC00060000FBE80E890E00FB6F8948093610017
:104FD000909361000FBEF5CB24D27BD2E2EEF0E0DD
:104FE0008081846080837894DEC488E491E0F9C98C
:104FF0008091E403853029F48091E403853011F039
:105000009CCC08956FDC15DC8823B1F38091E2031A
:10501000882391F362D00E94BC07EECF08959A01D5
:105020004091EB035091EC0300C0492F55274330CA
:10503000510519F168F44130510509F444C042307A
:10504000510509F445C090E080E050E040E025C003
:105050004132510549F142325105A9F784E490E00B
:1050600045E955E061157105C1F086EB90E04FED23
:1050700054E06130710589F0E6CF992781309105C0
:1050800081F0009729F00297F1F6EAE6F4E002C019
:10509000EEE8F4E0849190E0AF01F90151834083A0
:1050A0000895E8E7F4E0F6CF89E090E044EA54E0C0
:1050B0006115710591F389E090E04DEB54E06130AA
:1050C000710559F3C0CF82E190E04DEC54E0E5CF9B
:1050D0008BE390E042E954E0E0CF80E189BD82E1DA
:1050E00089BD09B400FEFDCF8091D8008F7D8093EB
:1050F000D8008091E00082608093E0008091E00021
:1051000081FDFCCF0895AF92BF92CF92DF92FF92C4
:105110000F931F93CF93DF936C01EB018A0150D162
:10512000F82E811123C00115110539F0F801808195
:105130009181C81BD90BC80ED91EB12CA12C209768
:10514000A9F08091E80085FD21C08091E8008E776C
:105150008093E80001151105A1F0F801808191818B
:10516000A80EB91EB182A08285E0F82E8F2DDF91A6
:10517000CF911F910F91FF90DF90CF90BF90AF9094
:1051800008951ED18823D9F2F82EF0CFF60181912F
:105190006F018093F1002197FFEFAF1ABF0ACFCFC5
:1051A000FC018091EB039091EC0386179707A0F028
:1051B0006115710529F49091E8009E779093E800BD
:1051C00090E06115710551F4911108C08091E800DB
:1051D00082FF34C080E00895BC01F2CF8091E403E7
:1051E0008823C1F18530C1F18091E80083FD30C092
:1051F0008091E80082FDEACF8091E80080FFE1CF56
:105200008091F3002091F200382F6115710519F09B
:105210002830310558F091E02830310509F090E050
:105220002091E8002E772093E800CBCF81918093E6
:10523000F100615071092F5F3F4FE7CF8091E40388
:10524000882341F0853041F08091E80083FFBECF94
:1052500081E0089582E0089583E00895FC01809143
:10526000EB039091EC0386179707A0F06115710589
:1052700029F48091E8008E778093E80090E0611532
:10528000710551F4911108C08091E80082FF35C08A
:1052900080E00895BC01F2CF8091E4038823C9F136
:1052A0008530C9F18091E80083FD31C08091E8002C
:1052B00082FDEACF8091E80080FFE1CF8091F3008A
:1052C0002091F200382F6115710519F02830310551
:1052D00058F091E02830310509F090E08091E80025
:1052E0008E778093E800CBCF84918093F100319644
:1052F000615071092F5F3F4FE6CF8091E40388230F
:1053000041F0853041F08091E80083FFBDCF81E01E
:10531000089582E0089583E00895982F973028F04B
:105320008F708093E90081E008959093E900242F25
:10533000762F50E0981731F07091EC002091ED003D
:105340005091F00021FD02C09F5FE8CF3091EB004B
:105350003E7F3093EB003091ED003D7F3093ED00C8
:105360003091EB0031603093EB007093EC002093B0
:10537000ED005093F0002091EE0027FDE5CF80E096
:1053800008958091E50387FF13C08091E80082FFB4
:1053900006C08091E8008B778093E80004C080917C
:1053A000E4038111F2CF08958091E4038823D9F3B7
:1053B0008091E80080FFF8CF8091E8008E77ECCFF5
:1053C0002091E4003091E50095E6A9012091EC00E0
:1053D000822F817020FF06C08091E80080FF06C008
:1053E00080E008952091E80022FD1AC08091E40336
:1053F000882389F0853089F08091EB0085FD0FC00E
:105400002091E4003091E50042175307F9F29150E2
:10541000E1F684E0089582E0089583E0089581E054
:10542000089567D06ED0E0EEF0E0808181608083E7
:10543000E8EDF0E080818F77808319BCA7EDB0E0C4
:105440008C918E7F8C9380818F7E80831092E3037A
:1054500008950F931F93CF93DF934BD052D0C8ED95
:10546000D0E088818F77888388818068888388816D
:105470008F7D888319BC1092E4031092E003109290
:10548000E2031092E10300EE10E0F80180818B7FCF
:10549000808388818160888342E060E080E03DDF36
:1054A000E1EEF0E080818E7F8083E2EEF0E08081AB
:1054B00081608083808188608083F80180818E7F15
:1054C0008083888180618883DF91CF911F910F91C4
:1054D0000895E8EDF0E080818F7E8083E7EDF0E0D5
:1054E00080818160808384E082BF81E08093E303D8
:1054F000B0CFE8EDF0E080818E7F80831092E200F3
:1055000008951092DA001092E10008951F920F9210
:105510000FB60F9211242F933F934F935F936F9386
:105520007F938F939F93AF93BF93EF93FF9380915C
:10553000E10082FF0AC08091E20082FF06C08091F4
:10554000E1008B7F8093E1002DD28091DA0080FF13
:1055500018C08091D80080FF14C08091DA008E7F3F
:105560008093DA008091D90080FF91C080E189BDED
:1055700082E189BD09B400FEFDCF81E08093E403A0
:1055800031DC8091E10080FF18C08091E20080FF53
:1055900014C08091E2008E7F8093E2008091E2004F
:1055A00080618093E2008091D80080628093D8006F
:1055B00019BC85E08093E40327DC8091E10084FF3F
:1055C0002AC08091E20084FF26C080E189BD82E18B
:1055D00089BD89B5982F917080FFFBCF8091D8004D
:1055E0008F7D8093D8008091E1008F7E8093E100D1
:1055F0008091E2008F7E8093E2008091E2008160E2
:105600008093E2008091E003882309F445C084E0A0
:105610008093E40300DC8091E10083FF27C0809148
:10562000E20083FF23C08091E100877F8093E10047
:1056300082E08093E4031092E0038091E1008E7F8A
:105640008093E1008091E2008E7F8093E200809160
:10565000E20080618093E20042E060E080E05DDE95
:105660008091F00088608093F000CBDBFF91EF9198
:10567000BF91AF919F918F917F916F915F914F916A
:105680003F912F910F900FBE0F901F90189519BC4E
:105690001092E403B3DB75CF8091E30087FD93E0C4
:1056A0009093E403B7CF1F920F920FB60F9211247D
:1056B0002F933F934F935F936F937F938F939F931A
:1056C000AF93BF93CF93DF93EF93FF93D091E90014
:1056D000DF708091EC00C82FC17080FDC0E810928F
:1056E000E9008091F000877F8093F00078941ED0CD
:1056F0001092E9008091F00088608093F000CD2B3B
:10570000CF70C093E900FF91EF91DF91CF91BF91EE
:10571000AF919F918F917F916F915F914F913F9149
:105720002F910F900FBE0F901F901895AAE2B0E036
:10573000EBE9FBE205C285EE93E02091F100FC016C
:105740002193CF01F3E08D3E9F07B9F77EDB809177
:10575000E80083FF16C18091E5039091E6039A303B
:1057600008F00FC1E92FF0E0ED5AF04DA9C18038E3
:1057700099F0823809F005C18091E9038F70873074
:1057800008F0FFC08093E9008091EB0085FB88273B
:1057900080F91092E90006C08091E1039091E20344
:1057A000911182609091E800977F9093E800809338
:1057B000F1001092F1008091E8008E77DFC088231D
:1057C00009F4CDC0823009F0DCC08091E70381117B
:1057D000D0C08091E9038F702FEF280F263008F09A
:1057E000D0C08093E9002091EB0020FFC2C093302D
:1057F00031F48091EB0080628093EB00BAC090910D
:10580000EB0090619093EB0021E030E001C0220FAB
:105810008A95EAF72093EA001092EA008091EB0063
:105820008860EACF8111ADC01091E7031F778091A6
:10583000E3008078812B8093E3008091E800877FEC
:105840008093E8009EDD8091E80080FFFCCF80918E
:10585000E30080688093E30082E0111183E080938D
:10586000E4038FC08058823008F08BC08091E7033A
:105870009091E8038C3D23E0920799F583E08A83B9
:105880008AE289834FB7F894DE01139620E03EE068
:1058900051E2E32FF0E050935700E49120FF03C062
:1058A000E295EF703F5FEF708E2F90E0EA30B8F036
:1058B000C7968D939D932F5F243159F74FBF8091E9
:1058C000E800877F8093E8006AE270E0CE010196ED
:1058D00067DC8091E8008B778093E80052C0C09627
:1058E000E8CF6091E9037091EA03AE014F5F5F4F2B
:1058F00096DBBC01892B09F444C09091E800977FA6
:105900009093E80089819A81A9DCE3CF8038C9F5BA
:105910008091E800877F8093E8008091E003809386
:10592000F10049CF81112DC09091E703923048F5E5
:105930008091E800877F8093E8009093E00321DD69
:105940008091E003882311F084E005C08091E3009A
:1059500087FDFACF81E08093E40366DA12C080917C
:10596000E703813071F481E0933009F080E08093A7
:10597000E2031092E9008091E800877F8093E800BD
:1059800000DD8091E80083FF0AC08091E800877FF6
:105990008093E8008091EB0080628093EB00AA96F0
:1059A000E3E0EAC00895CF938091E403882399F05F
:1059B000C091E900CF709091EC00892F817090FD2B
:1059C00080E8C82B1092E9008091E80083FDAEDEEC
:1059D000CF70C093E900CF91089523DD1092E403C6
:1059E0000895E8EDF0E08081806180838AE18A9506
:1059F000F1F700C08091D90081700895991B79E07A
:105A000004C0991F961708F0961B881F7A95C9F74E
:105A10008095089587FB082E062687FD819567FDF2
:105A20006195ECDF0EF4919507FC81950895AA1B12
:105A3000BB1B51E107C0AA1FBB1FA617B70710F079
:105A4000A61BB70B881F991F5A95A9F780959095AB
:105A5000BC01CD01089597FB072E16F4009406D0E3
:105A600077FD08D0E4DF07FC05D03EF490958195E2
:105A70009F4F0895709561957F4F0895A1E21A2E6A
:105A8000AA1BBB1BFD010DC0AA1FBB1FEE1FFF1FE2
:105A9000A217B307E407F50720F0A21BB30BE40B32
:105AA000F50B661F771F881F991F1A9469F7609579
:105AB0007095809590959B01AC01BD01CF01089533
:105AC000EE0FFF1F0590F491E02D099405D03323CC
:105AD00012F48A1B9B0B10C0A29FB001B39FC001A0
